{
  "_format": "hh-sol-artifact-1",
  "contractName": "SwapToken",
  "sourceName": "contracts/swap.sol",
  "abi": [
    {
      "inputs": [
        {
          "internalType": "address",
          "name": "_token1",
          "type": "address"
        },
        {
          "internalType": "address",
          "name": "_token2",
          "type": "address"
        }
      ],
      "stateMutability": "nonpayable",
      "type": "constructor"
    },
    {
      "anonymous": false,
      "inputs": [
        {
          "indexed": true,
          "internalType": "address",
          "name": "depositor",
          "type": "address"
        },
        {
          "indexed": false,
          "internalType": "uint256",
          "name": "amount",
          "type": "uint256"
        }
      ],
      "name": "SuccessfulDeposit",
      "type": "event"
    },
    {
      "anonymous": false,
      "inputs": [
        {
          "indexed": true,
          "internalType": "address",
          "name": "depositor",
          "type": "address"
        },
        {
          "indexed": false,
          "internalType": "uint256",
          "name": "amount",
          "type": "uint256"
        }
      ],
      "name": "SwapSuccessful",
      "type": "event"
    },
    {
      "inputs": [
        {
          "internalType": "uint256",
          "name": "amount",
          "type": "uint256"
        }
      ],
      "name": "addLiquidityToA",
      "outputs": [],
      "stateMutability": "nonpayable",
      "type": "function"
    },
    {
      "inputs": [
        {
          "internalType": "uint256",
          "name": "amount",
          "type": "uint256"
        }
      ],
      "name": "addLiquidityToB",
      "outputs": [],
      "stateMutability": "nonpayable",
      "type": "function"
    },
    {
      "inputs": [
        {
          "internalType": "address",
          "name": "_balance",
          "type": "address"
        }
      ],
      "name": "getBalanceOfTokenA",
      "outputs": [
        {
          "internalType": "uint256",
          "name": "",
          "type": "uint256"
        }
      ],
      "stateMutability": "view",
      "type": "function"
    },
    {
      "inputs": [
        {
          "internalType": "address",
          "name": "_balance",
          "type": "address"
        }
      ],
      "name": "getBalanceOfTokenB",
      "outputs": [
        {
          "internalType": "uint256",
          "name": "",
          "type": "uint256"
        }
      ],
      "stateMutability": "view",
      "type": "function"
    },
    {
      "inputs": [],
      "name": "getContractBalanceOfTokenA",
      "outputs": [
        {
          "internalType": "uint256",
          "name": "",
          "type": "uint256"
        }
      ],
      "stateMutability": "view",
      "type": "function"
    },
    {
      "inputs": [],
      "name": "getContractBalanceOfTokenB",
      "outputs": [
        {
          "internalType": "uint256",
          "name": "",
          "type": "uint256"
        }
      ],
      "stateMutability": "view",
      "type": "function"
    },
    {
      "inputs": [],
      "name": "owner",
      "outputs": [
        {
          "internalType": "address",
          "name": "",
          "type": "address"
        }
      ],
      "stateMutability": "view",
      "type": "function"
    },
    {
      "inputs": [
        {
          "internalType": "uint256",
          "name": "amount",
          "type": "uint256"
        }
      ],
      "name": "swapTokenAforTokenB",
      "outputs": [],
      "stateMutability": "nonpayable",
      "type": "function"
    },
    {
      "inputs": [
        {
          "internalType": "uint256",
          "name": "amount",
          "type": "uint256"
        }
      ],
      "name": "swapTokenBforTokenA",
      "outputs": [],
      "stateMutability": "nonpayable",
      "type": "function"
    },
    {
      "inputs": [],
      "name": "tokenAddress1",
      "outputs": [
        {
          "internalType": "contract IERC20",
          "name": "",
          "type": "address"
        }
      ],
      "stateMutability": "view",
      "type": "function"
    },
    {
      "inputs": [],
      "name": "tokenAddress2",
      "outputs": [
        {
          "internalType": "contract IERC20",
          "name": "",
          "type": "address"
        }
      ],
      "stateMutability": "view",
      "type": "function"
    },
    {
      "inputs": [],
      "name": "totalAmountOfTokenA",
      "outputs": [
        {
          "internalType": "uint256",
          "name": "",
          "type": "uint256"
        }
      ],
      "stateMutability": "view",
      "type": "function"
    },
    {
      "inputs": [],
      "name": "totalAmountOfTokenB",
      "outputs": [
        {
          "internalType": "uint256",
          "name": "",
          "type": "uint256"
        }
      ],
      "stateMutability": "view",
      "type": "function"
    }
  ],
  "bytecode": "0x60806040523480156200001157600080fd5b5060405162001fd538038062001fd583398181016040528101906200003791906200024e565b8073ffffffffffffffffffffffffffffffffffffffff168273ffffffffffffffffffffffffffffffffffffffff1603620000a8576040517f08c379a00000000000000000000000000000000000000000000000000000000081526004016200009f90620002f6565b60405180910390fd5b600073ffffffffffffffffffffffffffffffffffffffff163373ffffffffffffffffffffffffffffffffffffffff16036200011a576040517f08c379a0000000000000000000000000000000000000000000000000000000008152600401620001119062000368565b60405180910390fd5b81600160006101000a81548173ffffffffffffffffffffffffffffffffffffffff021916908373ffffffffffffffffffffffffffffffffffffffff16021790555080600260006101000a81548173ffffffffffffffffffffffffffffffffffffffff021916908373ffffffffffffffffffffffffffffffffffffffff160217905550336000806101000a81548173ffffffffffffffffffffffffffffffffffffffff021916908373ffffffffffffffffffffffffffffffffffffffff16021790555050506200038a565b600080fd5b600073ffffffffffffffffffffffffffffffffffffffff82169050919050565b60006200021682620001e9565b9050919050565b620002288162000209565b81146200023457600080fd5b50565b60008151905062000248816200021d565b92915050565b60008060408385031215620002685762000267620001e4565b5b6000620002788582860162000237565b92505060206200028b8582860162000237565b9150509250929050565b600082825260208201905092915050565b7f546f6b656e73206d75737420626520646966666572656e740000000000000000600082015250565b6000620002de60188362000295565b9150620002eb82620002a6565b602082019050919050565b600060208201905081810360008301526200031181620002cf565b9050919050565b7f41646472657373207a65726f206973206e6f7420616c6c6f7765640000000000600082015250565b600062000350601b8362000295565b91506200035d8262000318565b602082019050919050565b60006020820190508181036000830152620003838162000341565b9050919050565b611c3b806200039a6000396000f3fe608060405234801561001057600080fd5b50600436106100cf5760003560e01c806395b939781161008c578063f7bc0f8711610066578063f7bc0f87146101ee578063f8c9e8a41461020c578063fde47fa71461022a578063fe017ccf1461025a576100cf565b806395b9397814610198578063c47c4288146101b4578063f747a071146101d2576100cf565b80630e84407e146100d4578063134ddcc0146100f057806333e077fc1461010e57806354f8e6151461013e578063865d290e1461015c5780638da5cb5b1461017a575b600080fd5b6100ee60048036038101906100e991906113ad565b610276565b005b6100f86105cf565b60405161010591906113e9565b60405180910390f35b61012860048036038101906101239190611462565b6105d5565b60405161013591906113e9565b60405180910390f35b61014661067a565b60405161015391906114ee565b60405180910390f35b6101646106a0565b60405161017191906113e9565b60405180910390f35b610182610743565b60405161018f9190611518565b60405180910390f35b6101b260048036038101906101ad91906113ad565b610767565b005b6101bc610ac0565b6040516101c991906114ee565b60405180910390f35b6101ec60048036038101906101e791906113ad565b610ae6565b005b6101f6610e85565b60405161020391906113e9565b60405180910390f35b610214610e8b565b60405161022191906113e9565b60405180910390f35b610244600480360381019061023f9190611462565b610f2e565b60405161025191906113e9565b60405180910390f35b610274600480360381019061026f91906113ad565b610fd3565b005b600560003373ffffffffffffffffffffffffffffffffffffffff1673ffffffffffffffffffffffffffffffffffffffff168152602001908152602001600020600082815260200190815260200160002060009054906101000a900460ff16610313576040517f08c379a000000000000000000000000000000000000000000000000000000000815260040161030a90611590565b60405180910390fd5b600073ffffffffffffffffffffffffffffffffffffffff163373ffffffffffffffffffffffffffffffffffffffff1603610382576040517f08c379a0000000000000000000000000000000000000000000000000000000008152600401610379906115fc565b60405180910390fd5b6000600160009054906101000a900473ffffffffffffffffffffffffffffffffffffffff1673ffffffffffffffffffffffffffffffffffffffff1663a9059cbb60008054906101000a900473ffffffffffffffffffffffffffffffffffffffff16846040518363ffffffff1660e01b815260040161040192919061161c565b6020604051808303816000875af1158015610420573d6000803e3d6000fd5b505050506040513d601f19601f82011682018060405250810190610444919061167d565b905080610486576040517f08c379a000000000000000000000000000000000000000000000000000000000815260040161047d906116f6565b60405180910390fd5b60006005836104959190611774565b90506000600260009054906101000a900473ffffffffffffffffffffffffffffffffffffffff1673ffffffffffffffffffffffffffffffffffffffff1663a9059cbb33846040518363ffffffff1660e01b81526004016104f692919061161c565b6020604051808303816000875af1158015610515573d6000803e3d6000fd5b505050506040513d601f19601f82011682018060405250810190610539919061167d565b90508061057b576040517f08c379a0000000000000000000000000000000000000000000000000000000008152600401610572906117f1565b60405180910390fd5b3373ffffffffffffffffffffffffffffffffffffffff167ff12a93b520e347a9f6fac0d0eadf4603283511a046afe4ce7758c144fcb80065856040516105c191906113e9565b60405180910390a250505050565b60035481565b6000600260009054906101000a900473ffffffffffffffffffffffffffffffffffffffff1673ffffffffffffffffffffffffffffffffffffffff166370a08231836040518263ffffffff1660e01b81526004016106329190611518565b602060405180830381865afa15801561064f573d6000803e3d6000fd5b505050506040513d601f19601f820116820180604052508101906106739190611826565b9050919050565b600260009054906101000a900473ffffffffffffffffffffffffffffffffffffffff1681565b6000600160009054906101000a900473ffffffffffffffffffffffffffffffffffffffff1673ffffffffffffffffffffffffffffffffffffffff166370a08231306040518263ffffffff1660e01b81526004016106fd9190611518565b602060405180830381865afa15801561071a573d6000803e3d6000fd5b505050506040513d601f19601f8201168201806040525081019061073e9190611826565b905090565b60008054906101000a900473ffffffffffffffffffffffffffffffffffffffff1681565b600660003373ffffffffffffffffffffffffffffffffffffffff1673ffffffffffffffffffffffffffffffffffffffff168152602001908152602001600020600082815260200190815260200160002060009054906101000a900460ff16610804576040517f08c379a00000000000000000000000000000000000000000000000000000000081526004016107fb9061189f565b60405180910390fd5b600073ffffffffffffffffffffffffffffffffffffffff163373ffffffffffffffffffffffffffffffffffffffff1603610873576040517f08c379a000000000000000000000000000000000000000000000000000000000815260040161086a906115fc565b60405180910390fd5b6000600260009054906101000a900473ffffffffffffffffffffffffffffffffffffffff1673ffffffffffffffffffffffffffffffffffffffff1663a9059cbb60008054906101000a900473ffffffffffffffffffffffffffffffffffffffff16846040518363ffffffff1660e01b81526004016108f292919061161c565b6020604051808303816000875af1158015610911573d6000803e3d6000fd5b505050506040513d601f19601f82011682018060405250810190610935919061167d565b905080610977576040517f08c379a000000000000000000000000000000000000000000000000000000000815260040161096e906117f1565b60405180910390fd5b600060058361098691906118bf565b90506000600160009054906101000a900473ffffffffffffffffffffffffffffffffffffffff1673ffffffffffffffffffffffffffffffffffffffff1663a9059cbb33846040518363ffffffff1660e01b81526004016109e792919061161c565b6020604051808303816000875af1158015610a06573d6000803e3d6000fd5b505050506040513d601f19601f82011682018060405250810190610a2a919061167d565b905080610a6c576040517f08c379a0000000000000000000000000000000000000000000000000000000008152600401610a63906116f6565b60405180910390fd5b3373ffffffffffffffffffffffffffffffffffffffff167ff12a93b520e347a9f6fac0d0eadf4603283511a046afe4ce7758c144fcb8006585604051610ab291906113e9565b60405180910390a250505050565b600160009054906101000a900473ffffffffffffffffffffffffffffffffffffffff1681565b600073ffffffffffffffffffffffffffffffffffffffff163373ffffffffffffffffffffffffffffffffffffffff1603610b55576040517f08c379a0000000000000000000000000000000000000000000000000000000008152600401610b4c9061194d565b60405180910390fd5b60008111610b98576040517f08c379a0000000000000000000000000000000000000000000000000000000008152600401610b8f906119b9565b60405180910390fd5b6000600260009054906101000a900473ffffffffffffffffffffffffffffffffffffffff1673ffffffffffffffffffffffffffffffffffffffff166370a08231336040518263ffffffff1660e01b8152600401610bf59190611518565b602060405180830381865afa158015610c12573d6000803e3d6000fd5b505050506040513d601f19601f82011682018060405250810190610c369190611826565b905081811015610c7b576040517f08c379a0000000000000000000000000000000000000000000000000000000008152600401610c7290611a25565b60405180910390fd5b6000600283610c8a9190611a45565b14610cca576040517f08c379a0000000000000000000000000000000000000000000000000000000008152600401610cc190611ae8565b60405180910390fd5b6000600260009054906101000a900473ffffffffffffffffffffffffffffffffffffffff1673ffffffffffffffffffffffffffffffffffffffff166323b872dd3330866040518463ffffffff1660e01b8152600401610d2b93929190611b08565b6020604051808303816000875af1158015610d4a573d6000803e3d6000fd5b505050506040513d601f19601f82011682018060405250810190610d6e919061167d565b905080610db0576040517f08c379a0000000000000000000000000000000000000000000000000000000008152600401610da7906117f1565b60405180910390fd5b6001600660003373ffffffffffffffffffffffffffffffffffffffff1673ffffffffffffffffffffffffffffffffffffffff168152602001908152602001600020600085815260200190815260200160002060006101000a81548160ff0219169083151502179055508260046000828254610e2b9190611b3f565b925050819055503373ffffffffffffffffffffffffffffffffffffffff167f162476573801f81abf17cb3efcdd4fb631aaf200035a45624c8cc2002033ce6884604051610e7891906113e9565b60405180910390a2505050565b60045481565b6000600160009054906101000a900473ffffffffffffffffffffffffffffffffffffffff1673ffffffffffffffffffffffffffffffffffffffff166370a08231306040518263ffffffff1660e01b8152600401610ee89190611518565b602060405180830381865afa158015610f05573d6000803e3d6000fd5b505050506040513d601f19601f82011682018060405250810190610f299190611826565b905090565b6000600160009054906101000a900473ffffffffffffffffffffffffffffffffffffffff1673ffffffffffffffffffffffffffffffffffffffff166370a08231836040518263ffffffff1660e01b8152600401610f8b9190611518565b602060405180830381865afa158015610fa8573d6000803e3d6000fd5b505050506040513d601f19601f82011682018060405250810190610fcc9190611826565b9050919050565b600073ffffffffffffffffffffffffffffffffffffffff163373ffffffffffffffffffffffffffffffffffffffff1603611042576040517f08c379a00000000000000000000000000000000000000000000000000000000081526004016110399061194d565b60405180910390fd5b60008111611085576040517f08c379a000000000000000000000000000000000000000000000000000000000815260040161107c906119b9565b60405180910390fd5b6000600160009054906101000a900473ffffffffffffffffffffffffffffffffffffffff1673ffffffffffffffffffffffffffffffffffffffff166370a08231336040518263ffffffff1660e01b81526004016110e29190611518565b602060405180830381865afa1580156110ff573d6000803e3d6000fd5b505050506040513d601f19601f820116820180604052508101906111239190611826565b905081811015611168576040517f08c379a000000000000000000000000000000000000000000000000000000000815260040161115f90611a25565b60405180910390fd5b6000600a836111779190611a45565b146111b7576040517f08c379a00000000000000000000000000000000000000000000000000000000081526004016111ae90611be5565b60405180910390fd5b6000600160009054906101000a900473ffffffffffffffffffffffffffffffffffffffff1673ffffffffffffffffffffffffffffffffffffffff166323b872dd3330866040518463ffffffff1660e01b815260040161121893929190611b08565b6020604051808303816000875af1158015611237573d6000803e3d6000fd5b505050506040513d601f19601f8201168201806040525081019061125b919061167d565b90508061129d576040517f08c379a0000000000000000000000000000000000000000000000000000000008152600401611294906116f6565b60405180910390fd5b6001600560003373ffffffffffffffffffffffffffffffffffffffff1673ffffffffffffffffffffffffffffffffffffffff168152602001908152602001600020600085815260200190815260200160002060006101000a81548160ff02191690831515021790555082600360008282546113189190611b3f565b925050819055503373ffffffffffffffffffffffffffffffffffffffff167f162476573801f81abf17cb3efcdd4fb631aaf200035a45624c8cc2002033ce688460405161136591906113e9565b60405180910390a2505050565b600080fd5b6000819050919050565b61138a81611377565b811461139557600080fd5b50565b6000813590506113a781611381565b92915050565b6000602082840312156113c3576113c2611372565b5b60006113d184828501611398565b91505092915050565b6113e381611377565b82525050565b60006020820190506113fe60008301846113da565b92915050565b600073ffffffffffffffffffffffffffffffffffffffff82169050919050565b600061142f82611404565b9050919050565b61143f81611424565b811461144a57600080fd5b50565b60008135905061145c81611436565b92915050565b60006020828403121561147857611477611372565b5b60006114868482850161144d565b91505092915050565b6000819050919050565b60006114b46114af6114aa84611404565b61148f565b611404565b9050919050565b60006114c682611499565b9050919050565b60006114d8826114bb565b9050919050565b6114e8816114cd565b82525050565b600060208201905061150360008301846114df565b92915050565b61151281611424565b82525050565b600060208201905061152d6000830184611509565b92915050565b600082825260208201905092915050565b7f596f7520646964206e6f74206465706f73697420546f6b656e20410000000000600082015250565b600061157a601b83611533565b915061158582611544565b602082019050919050565b600060208201905081810360008301526115a98161156d565b9050919050565b7f496e76616c696420616464726573730000000000000000000000000000000000600082015250565b60006115e6600f83611533565b91506115f1826115b0565b602082019050919050565b60006020820190508181036000830152611615816115d9565b9050919050565b60006040820190506116316000830185611509565b61163e60208301846113da565b9392505050565b60008115159050919050565b61165a81611645565b811461166557600080fd5b50565b60008151905061167781611651565b92915050565b60006020828403121561169357611692611372565b5b60006116a184828501611668565b91505092915050565b7f546f6b656e2041207472616e73666572206661696c6564000000000000000000600082015250565b60006116e0601783611533565b91506116eb826116aa565b602082019050919050565b6000602082019050818103600083015261170f816116d3565b9050919050565b7f4e487b7100000000000000000000000000000000000000000000000000000000600052601260045260246000fd5b7f4e487b7100000000000000000000000000000000000000000000000000000000600052601160045260246000fd5b600061177f82611377565b915061178a83611377565b92508261179a57611799611716565b5b828204905092915050565b7f546f6b656e2042207472616e73666572206661696c6564000000000000000000600082015250565b60006117db601783611533565b91506117e6826117a5565b602082019050919050565b6000602082019050818103600083015261180a816117ce565b9050919050565b60008151905061182081611381565b92915050565b60006020828403121561183c5761183b611372565b5b600061184a84828501611811565b91505092915050565b7f596f7520646964206e6f74206465706f73697420546f6b656e20420000000000600082015250565b6000611889601b83611533565b915061189482611853565b602082019050919050565b600060208201905081810360008301526118b88161187c565b9050919050565b60006118ca82611377565b91506118d583611377565b92508282026118e381611377565b915082820484148315176118fa576118f9611745565b5b5092915050565b7f5a65726f206164647265737320646973616c6c6f776564000000000000000000600082015250565b6000611937601783611533565b915061194282611901565b602082019050919050565b600060208201905081810360008301526119668161192a565b9050919050565b7f596f752063616e6e6f74206465706f736974207a65726f20616d6f756e740000600082015250565b60006119a3601e83611533565b91506119ae8261196d565b602082019050919050565b600060208201905081810360008301526119d281611996565b9050919050565b7f496e73756666696369656e742062616c616e6365000000000000000000000000600082015250565b6000611a0f601483611533565b9150611a1a826119d9565b602082019050919050565b60006020820190508181036000830152611a3e81611a02565b9050919050565b6000611a5082611377565b9150611a5b83611377565b925082611a6b57611a6a611716565b5b828206905092915050565b7f546f6b656e2042206d75737420626520696e206d756c7469706c6573206f662060008201527f3200000000000000000000000000000000000000000000000000000000000000602082015250565b6000611ad2602183611533565b9150611add82611a76565b604082019050919050565b60006020820190508181036000830152611b0181611ac5565b9050919050565b6000606082019050611b1d6000830186611509565b611b2a6020830185611509565b611b3760408301846113da565b949350505050565b6000611b4a82611377565b9150611b5583611377565b9250828201905080821115611b6d57611b6c611745565b5b92915050565b7f546f6b656e2041206d75737420626520696e206d756c7469706c6573206f662060008201527f3130000000000000000000000000000000000000000000000000000000000000602082015250565b6000611bcf602283611533565b9150611bda82611b73565b604082019050919050565b60006020820190508181036000830152611bfe81611bc2565b905091905056fea26469706673582212208e216c466a75dc0cd22b986f8becb528f81a3deef70b31e6b967045c2c16618864736f6c63430008180033",
  "linkReferences": {},
  "deployedLinkReferences": {}
}